{
  "contractName": "Main",
  "abi": [
    {
      "inputs": [
        {
          "internalType": "address",
          "name": "tokenAddress",
          "type": "address"
        }
      ],
      "stateMutability": "nonpayable",
      "type": "constructor"
    },
    {
      "inputs": [
        {
          "internalType": "string",
          "name": "description",
          "type": "string"
        },
        {
          "internalType": "uint256",
          "name": "development_cost",
          "type": "uint256"
        },
        {
          "internalType": "uint256",
          "name": "evaluator_reward",
          "type": "uint256"
        },
        {
          "internalType": "string",
          "name": "expertise",
          "type": "string"
        }
      ],
      "name": "createProduct",
      "outputs": [
        {
          "internalType": "bool",
          "name": "",
          "type": "bool"
        }
      ],
      "stateMutability": "nonpayable",
      "type": "function"
    },
    {
      "inputs": [
        {
          "internalType": "string",
          "name": "name",
          "type": "string"
        },
        {
          "internalType": "uint256",
          "name": "productIndex",
          "type": "uint256"
        },
        {
          "internalType": "uint256",
          "name": "amount",
          "type": "uint256"
        }
      ],
      "name": "addFunding",
      "outputs": [
        {
          "internalType": "bool",
          "name": "",
          "type": "bool"
        }
      ],
      "stateMutability": "nonpayable",
      "type": "function"
    },
    {
      "inputs": [
        {
          "internalType": "uint256",
          "name": "productIndex",
          "type": "uint256"
        },
        {
          "internalType": "uint256",
          "name": "amount",
          "type": "uint256"
        }
      ],
      "name": "withdrawFunding",
      "outputs": [
        {
          "internalType": "bool",
          "name": "",
          "type": "bool"
        }
      ],
      "stateMutability": "nonpayable",
      "type": "function"
    },
    {
      "inputs": [
        {
          "internalType": "uint256",
          "name": "productIndex",
          "type": "uint256"
        },
        {
          "internalType": "uint256",
          "name": "percentage",
          "type": "uint256"
        }
      ],
      "name": "applyForProduct",
      "outputs": [
        {
          "internalType": "bool",
          "name": "",
          "type": "bool"
        }
      ],
      "stateMutability": "nonpayable",
      "type": "function"
    },
    {
      "inputs": [
        {
          "internalType": "uint256",
          "name": "productIndex",
          "type": "uint256"
        },
        {
          "internalType": "uint256",
          "name": "applicationIndex",
          "type": "uint256"
        }
      ],
      "name": "chooseFreelancer",
      "outputs": [
        {
          "internalType": "bool",
          "name": "",
          "type": "bool"
        }
      ],
      "stateMutability": "nonpayable",
      "type": "function"
    },
    {
      "inputs": [
        {
          "internalType": "address",
          "name": "owner",
          "type": "address"
        }
      ],
      "name": "getBalance",
      "outputs": [
        {
          "internalType": "uint256",
          "name": "",
          "type": "uint256"
        }
      ],
      "stateMutability": "view",
      "type": "function",
      "constant": true
    },
    {
      "inputs": [
        {
          "internalType": "uint256",
          "name": "index",
          "type": "uint256"
        }
      ],
      "name": "getProduct",
      "outputs": [
        {
          "components": [
            {
              "internalType": "string",
              "name": "description",
              "type": "string"
            },
            {
              "internalType": "uint256",
              "name": "development_cost",
              "type": "uint256"
            },
            {
              "internalType": "uint256",
              "name": "evaluator_reward",
              "type": "uint256"
            },
            {
              "internalType": "uint256",
              "name": "total_sum",
              "type": "uint256"
            },
            {
              "internalType": "string",
              "name": "expertise",
              "type": "string"
            },
            {
              "internalType": "address payable",
              "name": "manager",
              "type": "address"
            },
            {
              "internalType": "bool",
              "name": "is_done",
              "type": "bool"
            },
            {
              "internalType": "bool",
              "name": "exists",
              "type": "bool"
            }
          ],
          "internalType": "struct Main.Product",
          "name": "",
          "type": "tuple"
        }
      ],
      "stateMutability": "view",
      "type": "function",
      "constant": true
    },
    {
      "inputs": [
        {
          "internalType": "uint256",
          "name": "index",
          "type": "uint256"
        }
      ],
      "name": "getProductState",
      "outputs": [
        {
          "internalType": "string",
          "name": "",
          "type": "string"
        }
      ],
      "stateMutability": "view",
      "type": "function",
      "constant": true
    },
    {
      "inputs": [
        {
          "internalType": "address",
          "name": "freelancer",
          "type": "address"
        }
      ],
      "name": "getFreelancer",
      "outputs": [
        {
          "components": [
            {
              "internalType": "string",
              "name": "name",
              "type": "string"
            },
            {
              "internalType": "address payable",
              "name": "account",
              "type": "address"
            },
            {
              "internalType": "string",
              "name": "expertise",
              "type": "string"
            },
            {
              "internalType": "bool",
              "name": "exists",
              "type": "bool"
            }
          ],
          "internalType": "struct Main.Freelancer",
          "name": "",
          "type": "tuple"
        }
      ],
      "stateMutability": "view",
      "type": "function",
      "constant": true
    },
    {
      "inputs": [
        {
          "internalType": "address",
          "name": "evaluator",
          "type": "address"
        }
      ],
      "name": "getEvaluator",
      "outputs": [
        {
          "components": [
            {
              "internalType": "string",
              "name": "name",
              "type": "string"
            },
            {
              "internalType": "uint256",
              "name": "sum",
              "type": "uint256"
            },
            {
              "internalType": "address payable",
              "name": "account",
              "type": "address"
            },
            {
              "internalType": "string",
              "name": "expertise",
              "type": "string"
            },
            {
              "internalType": "bool",
              "name": "exists",
              "type": "bool"
            }
          ],
          "internalType": "struct Main.Evaluator",
          "name": "",
          "type": "tuple"
        }
      ],
      "stateMutability": "view",
      "type": "function",
      "constant": true
    },
    {
      "inputs": [],
      "name": "getProductCount",
      "outputs": [
        {
          "internalType": "uint256",
          "name": "",
          "type": "uint256"
        }
      ],
      "stateMutability": "view",
      "type": "function",
      "constant": true
    },
    {
      "inputs": [
        {
          "internalType": "uint256",
          "name": "productIndex",
          "type": "uint256"
        }
      ],
      "name": "getFreelancersPerProduct",
      "outputs": [
        {
          "components": [
            {
              "internalType": "address payable",
              "name": "account",
              "type": "address"
            },
            {
              "internalType": "uint256",
              "name": "sum",
              "type": "uint256"
            }
          ],
          "internalType": "struct Main.Application[]",
          "name": "",
          "type": "tuple[]"
        }
      ],
      "stateMutability": "view",
      "type": "function",
      "constant": true
    },
    {
      "inputs": [
        {
          "internalType": "uint256",
          "name": "productIndex",
          "type": "uint256"
        }
      ],
      "name": "getTeamPerProduct",
      "outputs": [
        {
          "components": [
            {
              "internalType": "address payable",
              "name": "account",
              "type": "address"
            },
            {
              "internalType": "uint256",
              "name": "sum",
              "type": "uint256"
            }
          ],
          "internalType": "struct Main.Application[]",
          "name": "",
          "type": "tuple[]"
        }
      ],
      "stateMutability": "view",
      "type": "function",
      "constant": true
    },
    {
      "inputs": [],
      "name": "isManager",
      "outputs": [
        {
          "internalType": "bool",
          "name": "",
          "type": "bool"
        }
      ],
      "stateMutability": "view",
      "type": "function",
      "constant": true
    },
    {
      "inputs": [],
      "name": "isFreelancer",
      "outputs": [
        {
          "internalType": "bool",
          "name": "",
          "type": "bool"
        }
      ],
      "stateMutability": "view",
      "type": "function",
      "constant": true
    },
    {
      "inputs": [],
      "name": "isEvaluator",
      "outputs": [
        {
          "internalType": "bool",
          "name": "",
          "type": "bool"
        }
      ],
      "stateMutability": "view",
      "type": "function",
      "constant": true
    }
  ],
  "bytecode": "0x60806040523480156200001157600080fd5b5060405162001ab138038062001ab18339810160408190526200003491620001f2565b60008054336001600160a01b031991821617909155600180549091166001600160a01b038316179055620000676200006e565b5062000222565b6040805160c08101825260046080820181815263082d8caf60e31b60a084015282526005602080840191909152338385018190526001606085015260009081529181529290208151805192939192620000cb928492019062000156565b5060208201516001808301919091556040830151600290920180546060909401511515600160a01b0260ff60a01b196001600160a01b039094166001600160a01b03199586161793909316929092179091556003805491820181556000527fc2575a0e9e593c00f959f8c92f12db2869c3395a3b0502d05e2516446f71f85b01805490911633179055565b828054600181600116156101000203166002900490600052602060002090601f016020900481019282601f106200019957805160ff1916838001178555620001c9565b82800160010185558215620001c9579182015b82811115620001c9578251825591602001919060010190620001ac565b50620001d7929150620001db565b5090565b5b80821115620001d75760008155600101620001dc565b60006020828403121562000204578081fd5b81516001600160a01b03811681146200021b578182fd5b9392505050565b61187f80620002326000396000f3fe608060405234801561001057600080fd5b50600436106101005760003560e01c80636eaa1af311610097578063d49b3b7a11610066578063d49b3b7a1461021f578063f02926c714610232578063f8b2cb4f14610252578063f948613c1461026557610100565b80636eaa1af3146101cf5780637890bfe0146101ef578063b9db15b4146101f7578063c56a3e881461021757610100565b80634a348da9116100d35780634a348da9146101745780634ffd8d801461018957806364df6ab11461019c5780636e2ccb49146101bc57610100565b8063030040b01461010557806308844e181461012e5780630b87a5641461014157806312bb716d14610154575b600080fd5b6101186101133660046114f6565b61026d565b6040516101259190611611565b60405180910390f35b61011861013c3660046113f7565b6103c6565b61011861014f3660046114f6565b6106dd565b6101676101623660046114c6565b6107e8565b604051610125919061161c565b61017c6108d5565b6040516101259190611840565b610118610197366004611446565b6108db565b6101af6101aa3660046113b0565b610a83565b604051610125919061173b565b6101186101ca3660046114f6565b610bfd565b6101e26101dd3660046114c6565b610cc1565b60405161012591906115b9565b610118610d49565b61020a6102053660046114c6565b610d62565b60405161012591906117a3565b610118610f10565b6101e261022d3660046114c6565b610f30565b6102456102403660046113b0565b610fa3565b60405161012591906116cd565b61017c6102603660046113b0565b61112a565b6101186111b1565b600082815260076020526040812060050154600160a81b900460ff16151560011461029757600080fd5b600083815260086020908152604080832033845290915290206003015460ff1615156001146102c557600080fd5b60008381526008602090815260408083203384529091529020600201548211156102ee57600080fd5b60008381526007602052604090206003015461030957600080fd5b60008381526007602052604090206003015461032590836111ca565b6000848152600760205260409081902060030191909155600154905163a9059cbb60e01b81526001600160a01b039091169063a9059cbb9061036d90339086906004016115a0565b602060405180830381600087803b15801561038757600080fd5b505af115801561039b573d6000803e3d6000fd5b505050506040513d601f19601f820116820180604052508101906103bf91906113d7565b9392505050565b600082815260076020526040812060050154600160a81b900460ff1615156001146103f057600080fd5b60008381526007602052604090206003015482900361042a5760405162461bcd60e51b81526004016104219061169d565b60405180910390fd5b600083815260086020908152604080832033845290915290206003015460ff1615156001141561054957600083815260086020908152604080832033845282529182902060020154825160a0601f8901849004909302810183019093526080830187815290929182919089908990819085018382808284376000920191909152505050908252503360208201526040016104c483866111ca565b815260016020918201526000868152600882526040808220338352835290208251805191926104f892849290910190611217565b5060208201516001820180546001600160a01b0319166001600160a01b03909216919091179055604082015160028201556060909101516003909101805460ff19169115159190911790555061061c565b604051806080016040528086868080601f016020809104026020016040519081016040528093929190818152602001838380828437600092018290525093855250503360208085018290526040808601899052600160609096019590955288845260088152848420918452908152929091208351805191936105d093508492910190611217565b5060208201516001820180546001600160a01b0319166001600160a01b03909216919091179055604082015160028201556060909101516003909101805460ff19169115159190911790555b60008381526007602052604090206003015461063890836111ef565b600084815260076020526040908190206003019190915560015490516323b872dd60e01b81526001600160a01b03909116906323b872dd906106829033903090879060040161157c565b602060405180830381600087803b15801561069c57600080fd5b505af11580156106b0573d6000803e3d6000fd5b505050506040513d601f19601f820116820180604052508101906106d491906113d7565b95945050505050565b336000908152600460205260408120600201805460ff60a01b1916600160a01b179055600083815260076020526040902060050154600160a81b900460ff16151560011461072a57600080fd5b6000838152600760205260409020600501546001600160a01b0316331461075057600080fd5b6000838152600760205260409020600301541561076c57600080fd5b6000838152600a60209081526040808320600990925290912080548490811061079157fe5b6000918252602080832084546001818101875595855291909320600292830290930180549190920290920180546001600160a01b0319166001600160a01b0390931692909217825582015490820155905092915050565b60008181526007602052604090206003015460609015610826575060408051808201909152600781526646756e64696e6760c81b60208201526108d0565b600082815260076020526040902060030154610864575060408051808201909152600b81526a11195d995b1bdc1b595b9d60aa1b60208201526108d0565b600082815260076020526040902060050154600160a01b900460ff161515600114156108b0575060408051808201909152600981526810dbdb5c1b195d195960ba1b60208201526108d0565b5060408051808201909152600781526610dc99585d195960ca1b60208201525b919050565b60025490565b336000908152600460205260408120600201805460ff60a01b1916600160a01b17905560405180610100016040528088888080601f016020809104026020016040519081016040528093929190818152602001838380828437600092019190915250505090825250602081018790526040810186905260600161095e87876111ca565b815260200184848080601f016020809104026020016040519081016040528093929190818152602001838380828437600092018290525093855250503360208085019190915260408085018490526001606090950194909452600254835260078152929091208351805191936109d993508492910190611217565b506020828101516001830155604083015160028301556060830151600383015560808301518051610a109260048501920190611217565b5060a08201516005909101805460c084015160e0909401511515600160a81b0260ff60a81b19941515600160a01b0260ff60a01b196001600160a01b039095166001600160a01b031990931692909217939093161792909216179055506002805460019081019091559695505050505050565b610a8b611295565b6001600160a01b0382166000908152600560209081526040918290208251815460026001821615610100026000190190911604601f8101849004909302810160a090810190945260808101838152909391928492849190840182828015610b335780601f10610b0857610100808354040283529160200191610b33565b820191906000526020600020905b815481529060010190602001808311610b1657829003601f168201915b50505091835250506001828101546001600160a01b0316602080840191909152600280850180546040805161010096831615969096026000190190911692909204601f81018490048402850184018352808552919094019391830182828015610bdd5780601f10610bb257610100808354040283529160200191610bdd565b820191906000526020600020905b815481529060010190602001808311610bc057829003601f168201915b50505091835250506003919091015460ff16151560209091015292915050565b336000908152600560205260408120600301805460ff19166001179055600083815260076020526040902060050154600160a81b900460ff161515600114610c4457600080fd5b60008381526007602052604090206003015415610c6057600080fd5b506000918252600960209081526040808420815180830190925233825281830193845280546001808201835591865292909420905160029092020180546001600160a01b0319166001600160a01b0390921691909117815590519082015590565b606060096000838152602001908152602001600020805480602002602001604051908101604052809291908181526020016000905b82821015610d3e576000848152602090819020604080518082019091526002850290910180546001600160a01b03168252600190810154828401529083529092019101610cf6565b505050509050919050565b3360009081526005602052604090206003015460ff1690565b610d6a6112c8565b600082815260076020908152604091829020825181546002610100600183161581026000190190921604601f810185900490940282016101209081019095528101838152909391928492849190840182828015610e085780601f10610ddd57610100808354040283529160200191610e08565b820191906000526020600020905b815481529060010190602001808311610deb57829003601f168201915b50505050508152602001600182015481526020016002820154815260200160038201548152602001600482018054600181600116156101000203166002900480601f016020809104026020016040519081016040528092919081815260200182805460018160011615610100020316600290048015610ec85780601f10610e9d57610100808354040283529160200191610ec8565b820191906000526020600020905b815481529060010190602001808311610eab57829003601f168201915b5050509183525050600591909101546001600160a01b038116602083015260ff600160a01b8204811615156040840152600160a81b9091041615156060909101529050919050565b33600090815260046020526040902060020154600160a01b900460ff1690565b6000818152600a60209081526040808320805482518185028101850190935280835260609492939192909184018215610d3e576000848152602090819020604080518082019091526002850290910180546001600160a01b03168252600190810154828401529083529092019101610cf6565b610fab61131a565b6001600160a01b0382166000908152600660209081526040918290208251815460026001821615610100026000190190911604601f8101849004909302810160c090810190945260a081018381529093919284928491908401828280156110535780601f1061102857610100808354040283529160200191611053565b820191906000526020600020905b81548152906001019060200180831161103657829003601f168201915b50505091835250506001828101546020808401919091526002808501546001600160a01b031660408086019190915260038601805482516101009682161596909602600019011692909204601f8101849004840285018401909152808452606090940193909183018282801561110a5780601f106110df5761010080835404028352916020019161110a565b820191906000526020600020905b8154815290600101906020018083116110ed57829003601f168201915b50505091835250506004919091015460ff16151560209091015292915050565b6001546040516370a0823160e01b81526000916001600160a01b0316906370a082319061115b908590600401611568565b60206040518083038186803b15801561117357600080fd5b505afa158015611187573d6000803e3d6000fd5b505050506040513d601f19601f820116820180604052508101906111ab91906114de565b92915050565b3360009081526006602052604090206004015460ff1690565b6000828201838110156103bf5760405162461bcd60e51b81526004016104219061162f565b6000828211156112115760405162461bcd60e51b815260040161042190611666565b50900390565b828054600181600116156101000203166002900490600052602060002090601f016020900481019282601f1061125857805160ff1916838001178555611285565b82800160010185558215611285579182015b8281111561128557825182559160200191906001019061126a565b50611291929150611354565b5090565b60405180608001604052806060815260200160006001600160a01b03168152602001606081526020016000151581525090565b604051806101000160405280606081526020016000815260200160008152602001600081526020016060815260200160006001600160a01b031681526020016000151581526020016000151581525090565b6040518060a00160405280606081526020016000815260200160006001600160a01b03168152602001606081526020016000151581525090565b5b808211156112915760008155600101611355565b60008083601f84011261137a578182fd5b50813567ffffffffffffffff811115611391578182fd5b6020830191508360208285010111156113a957600080fd5b9250929050565b6000602082840312156113c1578081fd5b81356001600160a01b03811681146103bf578182fd5b6000602082840312156113e8578081fd5b815180151581146103bf578182fd5b6000806000806060858703121561140c578283fd5b843567ffffffffffffffff811115611422578384fd5b61142e87828801611369565b90989097506020870135966040013595509350505050565b6000806000806000806080878903121561145e578182fd5b863567ffffffffffffffff80821115611475578384fd5b6114818a838b01611369565b9098509650602089013595506040890135945060608901359150808211156114a7578384fd5b506114b489828a01611369565b979a9699509497509295939492505050565b6000602082840312156114d7578081fd5b5035919050565b6000602082840312156114ef578081fd5b5051919050565b60008060408385031215611508578182fd5b50508035926020909101359150565b15159052565b60008151808452815b8181101561154257602081850181015186830182015201611526565b818111156115535782602083870101525b50601f01601f19169290920160200192915050565b6001600160a01b0391909116815260200190565b6001600160a01b039384168152919092166020820152604081019190915260600190565b6001600160a01b03929092168252602082015260400190565b602080825282518282018190526000919060409081850190868401855b8281101561160457815180516001600160a01b031685528601518685015292840192908501906001016115d6565b5091979650505050505050565b901515815260200190565b6000602082526103bf602083018461151d565b6020808252601b908201527f536166654d6174683a206164646974696f6e206f766572666c6f770000000000604082015260600190565b6020808252601e908201527f536166654d6174683a207375627472616374696f6e206f766572666c6f770000604082015260600190565b60208082526016908201527546756e64696e6720676f616c2065786365656465642160501b604082015260600190565b600060208252825160a060208401526116e960c084018261151d565b90506020840151604084015260018060a01b0360408501511660608401526060840151601f19848303016080850152611722828261151d565b9150506080840151151560a08401528091505092915050565b60006020825282516080602084015261175760a084018261151d565b60208501516001600160a01b0316604085810191909152850151848203601f1901606086015290915061178a828261151d565b9150506060840151151560808401528091505092915050565b60006020825282516101008060208501526117c261012085018361151d565b91506020850151604085015260408501516060850152606085015160808501526080850151601f198584030160a08601526117fd838261151d565b92505060018060a01b0360a08601511660c085015260c085015161182460e0860182611517565b5060e085015161183682860182611517565b5090949350505050565b9081526020019056fea2646970667358221220abf28402e94322b31a9daf68a87545cf65fad3bc8599f0d67cc42b39a29ec2c964736f6c63430007030033",
  "immutableReferences": {},
  "source": "pragma solidity ^0.7.3;\r\npragma experimental ABIEncoderV2;\r\nimport \"../token/YetAnotherEthereumToken.sol\";\r\nimport \"../token/SafeMath.sol\";\r\n\r\ncontract Main {\r\n    using SafeMath for uint256;\r\n\r\n    address private _creator;\r\n    YetAnotherEthereumToken private _token;\r\n    uint256 private _productCount;\r\n\r\n    struct Manager {\r\n        string name;\r\n        uint reputation;\r\n        address payable account;\r\n        bool exists;\r\n    }\r\n\r\n    struct Freelancer {\r\n        string name;\r\n        address payable account;\r\n        string expertise;\r\n        bool exists;\r\n    }\r\n\r\n    struct Evaluator {\r\n        string name;\r\n        uint sum;\r\n        address payable account;\r\n        string expertise;\r\n        bool exists;\r\n    }\r\n\r\n    struct Funder{\r\n        string name;\r\n        address payable account;\r\n        uint256 amount;\r\n        bool exists;\r\n    }\r\n\r\n    struct Application{\r\n        address payable account;\r\n        uint256 sum;\r\n    }\r\n    \r\n    struct Product{\r\n        string description;\r\n        uint256 development_cost;\r\n        uint256 evaluator_reward;\r\n        uint256 total_sum;\r\n        string expertise;\r\n        address payable manager;\r\n        bool is_done;\r\n        bool exists;\r\n    }\r\n    \r\n    address[] addresses;\r\n    \r\n    mapping(address => Manager) private _managers;\r\n    mapping(address => Freelancer) private _freelancers;\r\n    mapping(address => Evaluator) private _evaluators;\r\n    mapping(uint256 => Product) private _products;\r\n    mapping(uint256 => mapping(address => Funder)) private _fundersPerProduct;\r\n    mapping(uint256 => Application[]) private _freelancersPerProduct;\r\n    mapping(uint256 => Application[]) private _teamPerProduct;\r\n                    \r\n    constructor(address tokenAddress) {\r\n        _creator = msg.sender;\r\n        _token = YetAnotherEthereumToken(tokenAddress);\r\n        _init();\r\n    }\r\n    \r\n    function _init() private{\r\n        _managers[msg.sender] = Manager(\"Alex\", 5, payable(msg.sender), true);\r\n        addresses.push(msg.sender);\r\n    }\r\n\r\n    //Modifiers\r\n    \r\n    modifier _isManager() {\r\n        require (_managers[msg.sender].exists = true);\r\n        _;\r\n    }\r\n\r\n    modifier _isFreelancer() {\r\n        require (_freelancers[msg.sender].exists = true);\r\n        _;\r\n    }\r\n\r\n    //POST\r\n\r\n    function createProduct(string calldata description, uint256 development_cost, uint256 evaluator_reward, string calldata expertise) public _isManager returns(bool){\r\n        _products[_productCount] = Product(description, development_cost, evaluator_reward, development_cost.add(evaluator_reward), expertise, msg.sender, false, true);\r\n        _productCount = _productCount + 1;\r\n        return true;\r\n    }\r\n\r\n    //This needs an approve call for the contract from the UI\r\n    function addFunding(string calldata name, uint256 productIndex, uint256 amount) public returns(bool){\r\n        require(_products[productIndex].exists == true);\r\n        require(_products[productIndex].total_sum - amount > 0, \"Funding goal exceeded!\");\r\n\r\n        if(_fundersPerProduct[productIndex][msg.sender].exists == true){\r\n            uint256 currentSum = _fundersPerProduct[productIndex][msg.sender].amount;\r\n            _fundersPerProduct[productIndex][msg.sender] = Funder(name, msg.sender, currentSum.add(amount), true);\r\n        }\r\n        else{\r\n            _fundersPerProduct[productIndex][msg.sender] = Funder(name, msg.sender, amount, true);\r\n        }\r\n\r\n        _products[productIndex].total_sum = _products[productIndex].total_sum.sub(amount);\r\n\r\n        return _token.transferFrom(msg.sender, address(this), amount);\r\n    }\r\n\r\n    function withdrawFunding(uint256 productIndex, uint256 amount) public returns(bool){\r\n        require(_products[productIndex].exists == true);\r\n        require(_fundersPerProduct[productIndex][msg.sender].exists == true);\r\n        require(_fundersPerProduct[productIndex][msg.sender].amount >= amount);\r\n        require(_products[productIndex].total_sum > 0);\r\n\r\n        _products[productIndex].total_sum = _products[productIndex].total_sum.add(amount);\r\n        \r\n        return _token.transfer(msg.sender, amount);\r\n    }\r\n\r\n    function applyForProduct(uint256 productIndex, uint256 percentage) public _isFreelancer returns(bool){\r\n        require(_products[productIndex].exists == true);\r\n        require(_products[productIndex].total_sum <= 0);\r\n\r\n        _freelancersPerProduct[productIndex].push(Application(msg.sender, percentage));\r\n\r\n        return true;\r\n    }\r\n\r\n    function chooseFreelancer(uint256 productIndex, uint256 applicationIndex) public _isManager returns(bool){\r\n        require(_products[productIndex].exists == true);\r\n        require(_products[productIndex].manager == msg.sender);\r\n        require(_products[productIndex].total_sum <= 0);\r\n        \r\n        _teamPerProduct[productIndex].push(_freelancersPerProduct[productIndex][applicationIndex]);\r\n\r\n        return true;\r\n    }\r\n\r\n    //GET\r\n\r\n    function getBalance(address owner) public view returns(uint256){\r\n        return _token.balanceOf(owner);\r\n    }\r\n\r\n    function getProduct(uint256 index) public view returns(Product memory){\r\n        return _products[index];\r\n    }\r\n\r\n    function getProductState(uint256 index) public view returns(string memory){\r\n        if(_products[index].total_sum > 0){\r\n            return \"Funding\";\r\n        }\r\n        else if(_products[index].total_sum == 0){\r\n            return \"Development\";\r\n        }\r\n        else if(_products[index].is_done == true){\r\n            return \"Completed\";\r\n        }\r\n        \r\n        return \"Created\";\r\n    }\r\n\r\n    function getFreelancer(address freelancer) public view returns(Freelancer memory){\r\n        return _freelancers[freelancer];\r\n    }\r\n\r\n    function getEvaluator(address evaluator) public view returns(Evaluator memory){\r\n        return _evaluators[evaluator];\r\n    }\r\n\r\n    //Use this to get the index count -> Do item lookup for each index\r\n\r\n    function getProductCount() public view returns(uint256){\r\n        return _productCount;\r\n    }\r\n\r\n    function getFreelancersPerProduct(uint256 productIndex) public view returns(Application[] memory){\r\n        return _freelancersPerProduct[productIndex];\r\n    }\r\n\r\n    function getTeamPerProduct(uint256 productIndex) public view returns(Application[] memory){\r\n        return _teamPerProduct[productIndex];\r\n    }\r\n    \r\n    function isManager() public view returns(bool){\r\n        return _managers[msg.sender].exists;\r\n    }\r\n\r\n    function isFreelancer() public view returns(bool){\r\n        return _freelancers[msg.sender].exists;\r\n    }\r\n\r\n    function isEvaluator() public view returns(bool){\r\n        return _evaluators[msg.sender].exists;\r\n    }\r\n    \r\n}",
  "sourcePath": "C:/Users/Alex/Documents/Blockchain-Marketplace/src/contracts/marketplace/Main.sol",
  "compiler": {
    "name": "solc",
    "version": "0.7.3+commit.9bfce1f6.Emscripten.clang"
  },
  "schemaVersion": "3.3.3",
  "updatedAt": "2021-01-23T14:32:38.694Z",
  "networkType": "ethereum",
  "devdoc": {
    "kind": "dev",
    "methods": {},
    "version": 1
  },
  "userdoc": {
    "kind": "user",
    "methods": {},
    "version": 1
  }
}