{
  "contractName": "YetAnotherEthereumToken",
  "abi": [
    {
      "inputs": [],
      "stateMutability": "nonpayable",
      "type": "constructor"
    },
    {
      "anonymous": false,
      "inputs": [
        {
          "indexed": true,
          "internalType": "address",
          "name": "owner",
          "type": "address"
        },
        {
          "indexed": true,
          "internalType": "address",
          "name": "spender",
          "type": "address"
        },
        {
          "indexed": false,
          "internalType": "uint256",
          "name": "value",
          "type": "uint256"
        }
      ],
      "name": "Approval",
      "type": "event"
    },
    {
      "anonymous": false,
      "inputs": [
        {
          "indexed": true,
          "internalType": "address",
          "name": "from",
          "type": "address"
        },
        {
          "indexed": true,
          "internalType": "address",
          "name": "to",
          "type": "address"
        },
        {
          "indexed": false,
          "internalType": "uint256",
          "name": "value",
          "type": "uint256"
        }
      ],
      "name": "Transfer",
      "type": "event"
    },
    {
      "inputs": [
        {
          "internalType": "address",
          "name": "owner",
          "type": "address"
        },
        {
          "internalType": "address",
          "name": "spender",
          "type": "address"
        }
      ],
      "name": "allowance",
      "outputs": [
        {
          "internalType": "uint256",
          "name": "",
          "type": "uint256"
        }
      ],
      "stateMutability": "view",
      "type": "function",
      "constant": true
    },
    {
      "inputs": [
        {
          "internalType": "address",
          "name": "spender",
          "type": "address"
        },
        {
          "internalType": "uint256",
          "name": "amount",
          "type": "uint256"
        }
      ],
      "name": "approve",
      "outputs": [
        {
          "internalType": "bool",
          "name": "",
          "type": "bool"
        }
      ],
      "stateMutability": "nonpayable",
      "type": "function"
    },
    {
      "inputs": [
        {
          "internalType": "address",
          "name": "account",
          "type": "address"
        }
      ],
      "name": "balanceOf",
      "outputs": [
        {
          "internalType": "uint256",
          "name": "",
          "type": "uint256"
        }
      ],
      "stateMutability": "view",
      "type": "function",
      "constant": true
    },
    {
      "inputs": [],
      "name": "decimals",
      "outputs": [
        {
          "internalType": "uint8",
          "name": "",
          "type": "uint8"
        }
      ],
      "stateMutability": "view",
      "type": "function",
      "constant": true
    },
    {
      "inputs": [
        {
          "internalType": "address",
          "name": "spender",
          "type": "address"
        },
        {
          "internalType": "uint256",
          "name": "subtractedValue",
          "type": "uint256"
        }
      ],
      "name": "decreaseAllowance",
      "outputs": [
        {
          "internalType": "bool",
          "name": "",
          "type": "bool"
        }
      ],
      "stateMutability": "nonpayable",
      "type": "function"
    },
    {
      "inputs": [
        {
          "internalType": "address",
          "name": "spender",
          "type": "address"
        },
        {
          "internalType": "uint256",
          "name": "addedValue",
          "type": "uint256"
        }
      ],
      "name": "increaseAllowance",
      "outputs": [
        {
          "internalType": "bool",
          "name": "",
          "type": "bool"
        }
      ],
      "stateMutability": "nonpayable",
      "type": "function"
    },
    {
      "inputs": [],
      "name": "name",
      "outputs": [
        {
          "internalType": "string",
          "name": "",
          "type": "string"
        }
      ],
      "stateMutability": "view",
      "type": "function",
      "constant": true
    },
    {
      "inputs": [],
      "name": "symbol",
      "outputs": [
        {
          "internalType": "string",
          "name": "",
          "type": "string"
        }
      ],
      "stateMutability": "view",
      "type": "function",
      "constant": true
    },
    {
      "inputs": [],
      "name": "totalSupply",
      "outputs": [
        {
          "internalType": "uint256",
          "name": "",
          "type": "uint256"
        }
      ],
      "stateMutability": "view",
      "type": "function",
      "constant": true
    },
    {
      "inputs": [
        {
          "internalType": "address",
          "name": "recipient",
          "type": "address"
        },
        {
          "internalType": "uint256",
          "name": "amount",
          "type": "uint256"
        }
      ],
      "name": "transfer",
      "outputs": [
        {
          "internalType": "bool",
          "name": "",
          "type": "bool"
        }
      ],
      "stateMutability": "nonpayable",
      "type": "function"
    },
    {
      "inputs": [
        {
          "internalType": "address",
          "name": "sender",
          "type": "address"
        },
        {
          "internalType": "address",
          "name": "recipient",
          "type": "address"
        },
        {
          "internalType": "uint256",
          "name": "amount",
          "type": "uint256"
        }
      ],
      "name": "transferFrom",
      "outputs": [
        {
          "internalType": "bool",
          "name": "",
          "type": "bool"
        }
      ],
      "stateMutability": "nonpayable",
      "type": "function"
    },
    {
      "inputs": [
        {
          "internalType": "address",
          "name": "recipient",
          "type": "address"
        },
        {
          "internalType": "uint256",
          "name": "amount",
          "type": "uint256"
        }
      ],
      "name": "buyTokens",
      "outputs": [
        {
          "internalType": "bool",
          "name": "",
          "type": "bool"
        }
      ],
      "stateMutability": "payable",
      "type": "function",
      "payable": true
    }
  ],
  "bytecode": "0x60806040523480156200001157600080fd5b50604080518082018252601781527f596574416e6f74686572457468657265756d546f6b656e0000000000000000006020808301918252835180850190945260048452631650515560e21b908401528151919291620000739160039162000223565b5080516200008990600490602084019062000223565b50506005805460ff1916601217905550620000a7306103e8620000ad565b620002bf565b6001600160a01b03821662000109576040805162461bcd60e51b815260206004820152601f60248201527f45524332303a206d696e7420746f20746865207a65726f206164647265737300604482015290519081900360640190fd5b6200011760008383620001bc565b6200013381600254620001c160201b620006c41790919060201c565b6002556001600160a01b0382166000908152602081815260409091205462000166918390620006c4620001c1821b17901c565b6001600160a01b0383166000818152602081815260408083209490945583518581529351929391927fddf252ad1be2c89b69c2b068fc378daa952ba7f163c4a11628f55a4df523b3ef9281900390910190a35050565b505050565b6000828201838110156200021c576040805162461bcd60e51b815260206004820152601b60248201527f536166654d6174683a206164646974696f6e206f766572666c6f770000000000604482015290519081900360640190fd5b9392505050565b828054600181600116156101000203166002900490600052602060002090601f016020900481019282601f106200026657805160ff191683800117855562000296565b8280016001018555821562000296579182015b828111156200029657825182559160200191906001019062000279565b50620002a4929150620002a8565b5090565b5b80821115620002a45760008155600101620002a9565b610b3c80620002cf6000396000f3fe6080604052600436106100a75760003560e01c80633950935111610064578063395093511461024457806370a082311461027d57806395d89b41146102b0578063a457c2d7146102c5578063a9059cbb146102fe578063dd62ed3e14610337576100a7565b806306fdde03146100ac5780630752881a14610136578063095ea7b31461017657806318160ddd146101af57806323b872dd146101d6578063313ce56714610219575b600080fd5b3480156100b857600080fd5b506100c1610372565b6040805160208082528351818301528351919283929083019185019080838360005b838110156100fb5781810151838201526020016100e3565b50505050905090810190601f1680156101285780820380516001836020036101000a031916815260200191505b509250505060405180910390f35b6101626004803603604081101561014c57600080fd5b506001600160a01b038135169060200135610408565b604080519115158252519081900360200190f35b34801561018257600080fd5b506101626004803603604081101561019957600080fd5b506001600160a01b0381351690602001356104a0565b3480156101bb57600080fd5b506101c46104bd565b60408051918252519081900360200190f35b3480156101e257600080fd5b50610162600480360360608110156101f957600080fd5b506001600160a01b038135811691602081013590911690604001356104c3565b34801561022557600080fd5b5061022e61054a565b6040805160ff9092168252519081900360200190f35b34801561025057600080fd5b506101626004803603604081101561026757600080fd5b506001600160a01b038135169060200135610553565b34801561028957600080fd5b506101c4600480360360208110156102a057600080fd5b50356001600160a01b03166105a1565b3480156102bc57600080fd5b506100c16105bc565b3480156102d157600080fd5b50610162600480360360408110156102e857600080fd5b506001600160a01b03813516906020013561061d565b34801561030a57600080fd5b506101626004803603604081101561032157600080fd5b506001600160a01b038135169060200135610685565b34801561034357600080fd5b506101c46004803603604081101561035a57600080fd5b506001600160a01b0381358116916020013516610699565b60038054604080516020601f60026000196101006001881615020190951694909404938401819004810282018101909252828152606093909290918301828280156103fe5780601f106103d3576101008083540402835291602001916103fe565b820191906000526020600020905b8154815290600101906020018083116103e157829003601f168201915b5050505050905090565b6000306001600160a01b031663095ea7b384846040518363ffffffff1660e01b815260040180836001600160a01b0316815260200182815260200192505050602060405180830381600087803b15801561046157600080fd5b505af1158015610475573d6000803e3d6000fd5b505050506040513d602081101561048b57600080fd5b5061049990503084846104c3565b9392505050565b60006104b46104ad61071e565b8484610722565b50600192915050565b60025490565b60006104d084848461080e565b610540846104dc61071e565b61053b85604051806060016040528060288152602001610a71602891396001600160a01b038a1660009081526001602052604081209061051a61071e565b6001600160a01b031681526020810191909152604001600020549190610969565b610722565b5060019392505050565b60055460ff1690565b60006104b461056061071e565b8461053b856001600061057161071e565b6001600160a01b03908116825260208083019390935260409182016000908120918c1681529252902054906106c4565b6001600160a01b031660009081526020819052604090205490565b60048054604080516020601f60026000196101006001881615020190951694909404938401819004810282018101909252828152606093909290918301828280156103fe5780601f106103d3576101008083540402835291602001916103fe565b60006104b461062a61071e565b8461053b85604051806060016040528060258152602001610ae2602591396001600061065461071e565b6001600160a01b03908116825260208083019390935260409182016000908120918d16815292529020549190610969565b60006104b461069261071e565b848461080e565b6001600160a01b03918216600090815260016020908152604080832093909416825291909152205490565b600082820183811015610499576040805162461bcd60e51b815260206004820152601b60248201527f536166654d6174683a206164646974696f6e206f766572666c6f770000000000604482015290519081900360640190fd5b3390565b6001600160a01b0383166107675760405162461bcd60e51b8152600401808060200182810382526024815260200180610abe6024913960400191505060405180910390fd5b6001600160a01b0382166107ac5760405162461bcd60e51b8152600401808060200182810382526022815260200180610a296022913960400191505060405180910390fd5b6001600160a01b03808416600081815260016020908152604080832094871680845294825291829020859055815185815291517f8c5be1e5ebec7d5bd14f71427d1e84f3dd0314c0f7b2291e5b200ac8c7c3b9259281900390910190a3505050565b6001600160a01b0383166108535760405162461bcd60e51b8152600401808060200182810382526025815260200180610a996025913960400191505060405180910390fd5b6001600160a01b0382166108985760405162461bcd60e51b8152600401808060200182810382526023815260200180610a066023913960400191505060405180910390fd5b6108a3838383610a00565b6108e081604051806060016040528060268152602001610a4b602691396001600160a01b0386166000908152602081905260409020549190610969565b6001600160a01b03808516600090815260208190526040808220939093559084168152205461090f90826106c4565b6001600160a01b038084166000818152602081815260409182902094909455805185815290519193928716927fddf252ad1be2c89b69c2b068fc378daa952ba7f163c4a11628f55a4df523b3ef92918290030190a3505050565b600081848411156109f85760405162461bcd60e51b81526004018080602001828103825283818151815260200191508051906020019080838360005b838110156109bd5781810151838201526020016109a5565b50505050905090810190601f1680156109ea5780820380516001836020036101000a031916815260200191505b509250505060405180910390fd5b505050900390565b50505056fe45524332303a207472616e7366657220746f20746865207a65726f206164647265737345524332303a20617070726f766520746f20746865207a65726f206164647265737345524332303a207472616e7366657220616d6f756e7420657863656564732062616c616e636545524332303a207472616e7366657220616d6f756e74206578636565647320616c6c6f77616e636545524332303a207472616e736665722066726f6d20746865207a65726f206164647265737345524332303a20617070726f76652066726f6d20746865207a65726f206164647265737345524332303a2064656372656173656420616c6c6f77616e63652062656c6f77207a65726fa26469706673582212206c172ecd8522a30b409252fdb9790a27720af49092ddd5a973895f1f784b68a864736f6c63430007030033",
  "immutableReferences": {},
  "source": "// SPDX-License-Identifier: MIT\r\npragma solidity ^0.7.3;\r\nimport \"./ERC20.sol\";\r\n\r\ncontract YetAnotherEthereumToken is ERC20 {\r\n    constructor() ERC20(\"YetAnotherEthereumToken\",  \"YAET\"){\r\n        _mint(address(this), 1000);\r\n    }\r\n\r\n    function buyTokens(address recipient, uint256 amount) payable public returns(bool){\r\n        this.approve(recipient, amount);\r\n        return transferFrom(address(this), recipient, amount);\r\n    }\r\n}",
  "sourcePath": "C:\\Users\\Alex\\Documents\\Blockchain-Marketplace\\src\\contracts\\token\\YetAnotherEthereumToken.sol",
  "compiler": {
    "name": "solc",
    "version": "0.7.3+commit.9bfce1f6.Emscripten.clang"
  },
  "schemaVersion": "3.3.3",
  "updatedAt": "2021-01-23T14:32:38.702Z",
  "networkType": "ethereum",
  "devdoc": {
    "kind": "dev",
    "methods": {
      "allowance(address,address)": {
        "details": "See {IERC20-allowance}."
      },
      "approve(address,uint256)": {
        "details": "See {IERC20-approve}. Requirements: - `spender` cannot be the zero address."
      },
      "balanceOf(address)": {
        "details": "See {IERC20-balanceOf}."
      },
      "decimals()": {
        "details": "Returns the number of decimals used to get its user representation. For example, if `decimals` equals `2`, a balance of `505` tokens should be displayed to a user as `5,05` (`505 / 10 ** 2`). Tokens usually opt for a value of 18, imitating the relationship between Ether and Wei. This is the value {ERC20} uses, unless {_setupDecimals} is called. NOTE: This information is only used for _display_ purposes: it in no way affects any of the arithmetic of the contract, including {IERC20-balanceOf} and {IERC20-transfer}."
      },
      "decreaseAllowance(address,uint256)": {
        "details": "Atomically decreases the allowance granted to `spender` by the caller. This is an alternative to {approve} that can be used as a mitigation for problems described in {IERC20-approve}. Emits an {Approval} event indicating the updated allowance. Requirements: - `spender` cannot be the zero address. - `spender` must have allowance for the caller of at least `subtractedValue`."
      },
      "increaseAllowance(address,uint256)": {
        "details": "Atomically increases the allowance granted to `spender` by the caller. This is an alternative to {approve} that can be used as a mitigation for problems described in {IERC20-approve}. Emits an {Approval} event indicating the updated allowance. Requirements: - `spender` cannot be the zero address."
      },
      "name()": {
        "details": "Returns the name of the token."
      },
      "symbol()": {
        "details": "Returns the symbol of the token, usually a shorter version of the name."
      },
      "totalSupply()": {
        "details": "See {IERC20-totalSupply}."
      },
      "transfer(address,uint256)": {
        "details": "See {IERC20-transfer}. Requirements: - `recipient` cannot be the zero address. - the caller must have a balance of at least `amount`."
      },
      "transferFrom(address,address,uint256)": {
        "details": "See {IERC20-transferFrom}. Emits an {Approval} event indicating the updated allowance. This is not required by the EIP. See the note at the beginning of {ERC20}. Requirements: - `sender` and `recipient` cannot be the zero address. - `sender` must have a balance of at least `amount`. - the caller must have allowance for ``sender``'s tokens of at least `amount`."
      }
    },
    "version": 1
  },
  "userdoc": {
    "kind": "user",
    "methods": {},
    "version": 1
  }
}